{
  "address": "0xa7EAF4464195680B8a56970279C2b0ea3526bA81",
  "abi": [
    {
      "inputs": [
        {
          "internalType": "contract IWorldID",
          "name": "_worldId",
          "type": "address"
        },
        {
          "internalType": "string",
          "name": "_appId",
          "type": "string"
        },
        {
          "internalType": "string",
          "name": "_actionId",
          "type": "string"
        }
      ],
      "stateMutability": "nonpayable",
      "type": "constructor"
    },
    {
      "inputs": [],
      "name": "InvalidNullifier",
      "type": "error"
    },
    {
      "anonymous": false,
      "inputs": [
        {
          "indexed": true,
          "internalType": "address",
          "name": "owner",
          "type": "address"
        },
        {
          "indexed": true,
          "internalType": "address",
          "name": "approved",
          "type": "address"
        },
        {
          "indexed": true,
          "internalType": "uint256",
          "name": "tokenId",
          "type": "uint256"
        }
      ],
      "name": "Approval",
      "type": "event"
    },
    {
      "anonymous": false,
      "inputs": [
        {
          "indexed": true,
          "internalType": "address",
          "name": "owner",
          "type": "address"
        },
        {
          "indexed": true,
          "internalType": "address",
          "name": "operator",
          "type": "address"
        },
        {
          "indexed": false,
          "internalType": "bool",
          "name": "approved",
          "type": "bool"
        }
      ],
      "name": "ApprovalForAll",
      "type": "event"
    },
    {
      "anonymous": false,
      "inputs": [
        {
          "indexed": true,
          "internalType": "address",
          "name": "to",
          "type": "address"
        },
        {
          "indexed": true,
          "internalType": "uint256",
          "name": "tokenId",
          "type": "uint256"
        },
        {
          "indexed": false,
          "internalType": "string",
          "name": "ipfsHash",
          "type": "string"
        }
      ],
      "name": "Minted",
      "type": "event"
    },
    {
      "anonymous": false,
      "inputs": [
        {
          "indexed": true,
          "internalType": "address",
          "name": "from",
          "type": "address"
        },
        {
          "indexed": true,
          "internalType": "address",
          "name": "to",
          "type": "address"
        },
        {
          "indexed": true,
          "internalType": "uint256",
          "name": "tokenId",
          "type": "uint256"
        }
      ],
      "name": "Transfer",
      "type": "event"
    },
    {
      "inputs": [
        {
          "internalType": "address",
          "name": "to",
          "type": "address"
        },
        {
          "internalType": "uint256",
          "name": "tokenId",
          "type": "uint256"
        }
      ],
      "name": "approve",
      "outputs": [],
      "stateMutability": "nonpayable",
      "type": "function"
    },
    {
      "inputs": [
        {
          "internalType": "address",
          "name": "owner",
          "type": "address"
        }
      ],
      "name": "balanceOf",
      "outputs": [
        {
          "internalType": "uint256",
          "name": "",
          "type": "uint256"
        }
      ],
      "stateMutability": "view",
      "type": "function"
    },
    {
      "inputs": [
        {
          "internalType": "uint256",
          "name": "tokenId",
          "type": "uint256"
        }
      ],
      "name": "burn",
      "outputs": [],
      "stateMutability": "nonpayable",
      "type": "function"
    },
    {
      "inputs": [
        {
          "internalType": "string",
          "name": "cid",
          "type": "string"
        }
      ],
      "name": "devMint",
      "outputs": [],
      "stateMutability": "nonpayable",
      "type": "function"
    },
    {
      "inputs": [
        {
          "internalType": "uint256",
          "name": "tokenId",
          "type": "uint256"
        }
      ],
      "name": "getApproved",
      "outputs": [
        {
          "internalType": "address",
          "name": "",
          "type": "address"
        }
      ],
      "stateMutability": "view",
      "type": "function"
    },
    {
      "inputs": [
        {
          "internalType": "address",
          "name": "owner",
          "type": "address"
        },
        {
          "internalType": "address",
          "name": "operator",
          "type": "address"
        }
      ],
      "name": "isApprovedForAll",
      "outputs": [
        {
          "internalType": "bool",
          "name": "",
          "type": "bool"
        }
      ],
      "stateMutability": "view",
      "type": "function"
    },
    {
      "inputs": [
        {
          "internalType": "address",
          "name": "signal",
          "type": "address"
        },
        {
          "internalType": "uint256",
          "name": "root",
          "type": "uint256"
        },
        {
          "internalType": "uint256",
          "name": "nullifierHash",
          "type": "uint256"
        },
        {
          "internalType": "uint256[8]",
          "name": "proof",
          "type": "uint256[8]"
        },
        {
          "internalType": "string",
          "name": "cid",
          "type": "string"
        }
      ],
      "name": "mint",
      "outputs": [],
      "stateMutability": "nonpayable",
      "type": "function"
    },
    {
      "inputs": [],
      "name": "name",
      "outputs": [
        {
          "internalType": "string",
          "name": "",
          "type": "string"
        }
      ],
      "stateMutability": "view",
      "type": "function"
    },
    {
      "inputs": [
        {
          "internalType": "uint256",
          "name": "tokenId",
          "type": "uint256"
        }
      ],
      "name": "ownerOf",
      "outputs": [
        {
          "internalType": "address",
          "name": "",
          "type": "address"
        }
      ],
      "stateMutability": "view",
      "type": "function"
    },
    {
      "inputs": [
        {
          "internalType": "address",
          "name": "from",
          "type": "address"
        },
        {
          "internalType": "address",
          "name": "to",
          "type": "address"
        },
        {
          "internalType": "uint256",
          "name": "tokenId",
          "type": "uint256"
        }
      ],
      "name": "safeTransferFrom",
      "outputs": [],
      "stateMutability": "nonpayable",
      "type": "function"
    },
    {
      "inputs": [
        {
          "internalType": "address",
          "name": "from",
          "type": "address"
        },
        {
          "internalType": "address",
          "name": "to",
          "type": "address"
        },
        {
          "internalType": "uint256",
          "name": "tokenId",
          "type": "uint256"
        },
        {
          "internalType": "bytes",
          "name": "data",
          "type": "bytes"
        }
      ],
      "name": "safeTransferFrom",
      "outputs": [],
      "stateMutability": "nonpayable",
      "type": "function"
    },
    {
      "inputs": [
        {
          "internalType": "address",
          "name": "operator",
          "type": "address"
        },
        {
          "internalType": "bool",
          "name": "approved",
          "type": "bool"
        }
      ],
      "name": "setApprovalForAll",
      "outputs": [],
      "stateMutability": "nonpayable",
      "type": "function"
    },
    {
      "inputs": [
        {
          "internalType": "uint256",
          "name": "tokenId",
          "type": "uint256"
        },
        {
          "internalType": "string",
          "name": "cid",
          "type": "string"
        }
      ],
      "name": "setTokenURI",
      "outputs": [],
      "stateMutability": "nonpayable",
      "type": "function"
    },
    {
      "inputs": [
        {
          "internalType": "address",
          "name": "userAddress",
          "type": "address"
        },
        {
          "internalType": "string",
          "name": "cid",
          "type": "string"
        }
      ],
      "name": "setTokenURI",
      "outputs": [],
      "stateMutability": "nonpayable",
      "type": "function"
    },
    {
      "inputs": [
        {
          "internalType": "bytes4",
          "name": "interfaceId",
          "type": "bytes4"
        }
      ],
      "name": "supportsInterface",
      "outputs": [
        {
          "internalType": "bool",
          "name": "",
          "type": "bool"
        }
      ],
      "stateMutability": "view",
      "type": "function"
    },
    {
      "inputs": [],
      "name": "symbol",
      "outputs": [
        {
          "internalType": "string",
          "name": "",
          "type": "string"
        }
      ],
      "stateMutability": "view",
      "type": "function"
    },
    {
      "inputs": [
        {
          "internalType": "uint256",
          "name": "tokenId",
          "type": "uint256"
        }
      ],
      "name": "tokenURI",
      "outputs": [
        {
          "internalType": "string",
          "name": "",
          "type": "string"
        }
      ],
      "stateMutability": "view",
      "type": "function"
    },
    {
      "inputs": [],
      "name": "totalSupply",
      "outputs": [
        {
          "internalType": "uint256",
          "name": "",
          "type": "uint256"
        }
      ],
      "stateMutability": "view",
      "type": "function"
    },
    {
      "inputs": [
        {
          "internalType": "address",
          "name": "from",
          "type": "address"
        },
        {
          "internalType": "address",
          "name": "to",
          "type": "address"
        },
        {
          "internalType": "uint256",
          "name": "tokenId",
          "type": "uint256"
        }
      ],
      "name": "transferFrom",
      "outputs": [],
      "stateMutability": "nonpayable",
      "type": "function"
    }
  ],
  "transactionHash": "0x7d1c675b3a654b09a3cea08e400d464a4d511973dcc265a026510ec9414632cb",
  "args": [
    "0xABB70f7F39035586Da57B3c8136035f87AC0d2Aa",
    "app_staging_80251b57de090b576b3c8c1d0eab9cfd",
    "Sign In WorldID"
  ],
  "numDeployments": 4,
  "solcInputHash": "72eb3a625fac5204d1febda66e46a373",
  "bytecode": "0x60e0604052600160c08190526007553480156200001b57600080fd5b5060405162001d9438038062001d948339810160408190526200003e9162000212565b6040518060400160405280600881526020016710dbdb9d1c9858dd60c21b8152506040518060400160405280600881526020016710d3d395149050d560c21b81525081600090816200009191906200032b565b506001620000a082826200032b565b5050506001600160a01b0383166080526040516200010190620000ed90620000cd908590602001620003f7565b6040516020818303038152906040526200010e60201b62000a431760201c565b82604051602001620000cd92919062000415565b60a052506200043d915050565b6000600882604051602001620001259190620003f7565b60408051601f198184030181529190528051602090910120901c92915050565b634e487b7160e01b600052604160045260246000fd5b60005b83811015620001785781810151838201526020016200015e565b50506000910152565b600082601f8301126200019357600080fd5b81516001600160401b0380821115620001b057620001b062000145565b604051601f8301601f19908116603f01168101908282118183101715620001db57620001db62000145565b81604052838152866020858801011115620001f557600080fd5b620002088460208301602089016200015b565b9695505050505050565b6000806000606084860312156200022857600080fd5b83516001600160a01b03811681146200024057600080fd5b60208501519093506001600160401b03808211156200025e57600080fd5b6200026c8783880162000181565b935060408601519150808211156200028357600080fd5b50620002928682870162000181565b9150509250925092565b600181811c90821680620002b157607f821691505b602082108103620002d257634e487b7160e01b600052602260045260246000fd5b50919050565b601f8211156200032657600081815260208120601f850160051c81016020861015620003015750805b601f850160051c820191505b8181101562000322578281556001016200030d565b5050505b505050565b81516001600160401b0381111562000347576200034762000145565b6200035f816200035884546200029c565b84620002d8565b602080601f8311600181146200039757600084156200037e5750858301515b600019600386901b1c1916600185901b17855562000322565b600085815260208120601f198616915b82811015620003c857888601518255948401946001909101908401620003a7565b5085821015620003e75787850151600019600388901b60f8161c191681555b5050505050600190811b01905550565b600082516200040b8184602087016200015b565b9190910192915050565b828152600082516200042f8160208501602087016200015b565b919091016020019392505050565b60805160a05160c0516119276200046d600039600061060201526000610664015260006105d201526119276000f3fe608060405234801561001057600080fd5b50600436106101215760003560e01c806342966c68116100ad57806398d7352f1161007157806398d7352f14610255578063a22cb46514610268578063b88d4fde1461027b578063c87b56dd1461028e578063e985e9c5146102a157600080fd5b806342966c68146102015780636352211e146102145780636f07beba1461022757806370a082311461023a57806395d89b411461024d57600080fd5b8063162094c4116100f4578063162094c4146101a357806318160ddd146101b657806323b872dd146101c857806341776efb146101db57806342842e0e146101ee57600080fd5b806301ffc9a71461012657806306fdde031461014e578063081812fc14610163578063095ea7b31461018e575b600080fd5b610139610134366004611160565b6102dd565b60405190151581526020015b60405180910390f35b61015661032f565b60405161014591906111d4565b6101766101713660046111e7565b6103c1565b6040516001600160a01b039091168152602001610145565b6101a161019c36600461121c565b6103e8565b005b6101a16101b13660046112f2565b610502565b6007545b604051908152602001610145565b6101a16101d6366004611339565b61056f565b6101a16101e9366004611375565b6105a0565b6101a16101fc366004611339565b610787565b6101a161020f3660046111e7565b6107a2565b6101766102223660046111e7565b6107ae565b6101a16102353660046113ee565b61080e565b6101ba610248366004611423565b6108a1565b610156610927565b6101a161026336600461143e565b610936565b6101a1610276366004611476565b6109c2565b6101a16102893660046114b2565b6109d1565b61015661029c3660046111e7565b610a03565b6101396102af36600461152e565b6001600160a01b03918216600090815260056020908152604080832093909416825291909152205460ff1690565b60006001600160e01b031982166380ac58cd60e01b148061030e57506001600160e01b03198216635b5e139f60e01b145b8061032957506301ffc9a760e01b6001600160e01b03198316145b92915050565b60606000805461033e90611561565b80601f016020809104026020016040519081016040528092919081815260200182805461036a90611561565b80156103b75780601f1061038c576101008083540402835291602001916103b7565b820191906000526020600020905b81548152906001019060200180831161039a57829003601f168201915b5050505050905090565b60006103cc82610a78565b506000908152600460205260409020546001600160a01b031690565b60006103f3826107ae565b9050806001600160a01b0316836001600160a01b0316036104655760405162461bcd60e51b815260206004820152602160248201527f4552433732313a20617070726f76616c20746f2063757272656e74206f776e656044820152603960f91b60648201526084015b60405180910390fd5b336001600160a01b0382161480610481575061048181336102af565b6104f35760405162461bcd60e51b815260206004820152603d60248201527f4552433732313a20617070726f76652063616c6c6572206973206e6f7420746f60448201527f6b656e206f776e6572206f7220617070726f76656420666f7220616c6c000000606482015260840161045c565b6104fd8383610ad7565b505050565b61050b82610a78565b33610515836107ae565b6001600160a01b0316146105575760405162461bcd60e51b81526020600482015260096024820152682737ba1037bbb732b960b91b604482015260640161045c565b60008281526008602052604090206104fd82826115e9565b6105793382610b45565b6105955760405162461bcd60e51b815260040161045c906116a9565b6104fd838383610bc4565b60008381526006602052604090205460ff16156105d057604051632ec8265960e11b815260040160405180910390fd5b7f00000000000000000000000000000000000000000000000000000000000000006001600160a01b0316633bc778e3857f00000000000000000000000000000000000000000000000000000000000000006106618960405160200161064d919060609190911b6bffffffffffffffffffffffff1916815260140190565b604051602081830303815290604052610a43565b877f0000000000000000000000000000000000000000000000000000000000000000886040518763ffffffff1660e01b81526004016106a5969594939291906116f6565b60006040518083038186803b1580156106bd57600080fd5b505afa1580156106d1573d6000803e3d6000fd5b5050506000848152600660205260409020805460ff19166001179055506007546106fc903390610d28565b600754336000908152600960209081526040808320849055928252600890522061072682826115e9565b50600780549060006107378361172e565b9190505550600754336001600160a01b03167fe7cd4ce7f2a465edc730269a1305e8a48bad821e8fb7e152ec413829c01a53c48360405161077891906111d4565b60405180910390a35050505050565b6104fd838383604051806020016040528060008152506109d1565b6107ab81610eb3565b50565b6000818152600260205260408120546001600160a01b0316806103295760405162461bcd60e51b8152602060048201526018602482015277115490cdcc8c4e881a5b9d985b1a59081d1bdad95b88125160421b604482015260640161045c565b61081a33600754610d28565b600754336000908152600960209081526040808320849055928252600890522061084482826115e9565b50600780549060006108558361172e565b9190505550600754336001600160a01b03167fe7cd4ce7f2a465edc730269a1305e8a48bad821e8fb7e152ec413829c01a53c48360405161089691906111d4565b60405180910390a350565b60006001600160a01b03821661090b5760405162461bcd60e51b815260206004820152602960248201527f4552433732313a2061646472657373207a65726f206973206e6f7420612076616044820152683634b21037bbb732b960b91b606482015260840161045c565b506001600160a01b031660009081526003602052604090205490565b60606001805461033e90611561565b6001600160a01b03821660009081526009602052604090205461095881610a78565b33610962826107ae565b6001600160a01b0316146109a45760405162461bcd60e51b81526020600482015260096024820152682737ba1037bbb732b960b91b604482015260640161045c565b60008181526008602052604090206109bc83826115e9565b50505050565b6109cd338383610f48565b5050565b6109db3383610b45565b6109f75760405162461bcd60e51b815260040161045c906116a9565b6109bc84848484611016565b6060610a0e82610a78565b6000828152600860209081526040918290209151610a2d929101611755565b6040516020818303038152906040529050919050565b6000600882604051602001610a5891906117e4565b60408051601f198184030181529190528051602090910120901c92915050565b6000818152600260205260409020546001600160a01b03166107ab5760405162461bcd60e51b8152602060048201526018602482015277115490cdcc8c4e881a5b9d985b1a59081d1bdad95b88125160421b604482015260640161045c565b600081815260046020526040902080546001600160a01b0319166001600160a01b0384169081179091558190610b0c826107ae565b6001600160a01b03167f8c5be1e5ebec7d5bd14f71427d1e84f3dd0314c0f7b2291e5b200ac8c7c3b92560405160405180910390a45050565b600080610b51836107ae565b9050806001600160a01b0316846001600160a01b03161480610b9857506001600160a01b0380821660009081526005602090815260408083209388168352929052205460ff165b80610bbc5750836001600160a01b0316610bb1846103c1565b6001600160a01b0316145b949350505050565b826001600160a01b0316610bd7826107ae565b6001600160a01b031614610bfd5760405162461bcd60e51b815260040161045c90611800565b6001600160a01b038216610c5f5760405162461bcd60e51b8152602060048201526024808201527f4552433732313a207472616e7366657220746f20746865207a65726f206164646044820152637265737360e01b606482015260840161045c565b826001600160a01b0316610c72826107ae565b6001600160a01b031614610c985760405162461bcd60e51b815260040161045c90611800565b600081815260046020908152604080832080546001600160a01b03199081169091556001600160a01b0387811680865260038552838620805460001901905590871680865283862080546001019055868652600290945282852080549092168417909155905184937fddf252ad1be2c89b69c2b068fc378daa952ba7f163c4a11628f55a4df523b3ef91a4505050565b6001600160a01b038216610d7e5760405162461bcd60e51b815260206004820181905260248201527f4552433732313a206d696e7420746f20746865207a65726f2061646472657373604482015260640161045c565b6000818152600260205260409020546001600160a01b031615610de35760405162461bcd60e51b815260206004820152601c60248201527f4552433732313a20746f6b656e20616c7265616479206d696e74656400000000604482015260640161045c565b6000818152600260205260409020546001600160a01b031615610e485760405162461bcd60e51b815260206004820152601c60248201527f4552433732313a20746f6b656e20616c7265616479206d696e74656400000000604482015260640161045c565b6001600160a01b038216600081815260036020908152604080832080546001019055848352600290915280822080546001600160a01b0319168417905551839291907fddf252ad1be2c89b69c2b068fc378daa952ba7f163c4a11628f55a4df523b3ef908290a45050565b6000610ebe826107ae565b9050610ec9826107ae565b600083815260046020908152604080832080546001600160a01b03199081169091556001600160a01b0385168085526003845282852080546000190190558785526002909352818420805490911690555192935084927fddf252ad1be2c89b69c2b068fc378daa952ba7f163c4a11628f55a4df523b3ef908390a45050565b816001600160a01b0316836001600160a01b031603610fa95760405162461bcd60e51b815260206004820152601960248201527f4552433732313a20617070726f766520746f2063616c6c657200000000000000604482015260640161045c565b6001600160a01b03838116600081815260056020908152604080832094871680845294825291829020805460ff191686151590811790915591519182527f17307eab39ab6107e8899845ad3d59bd9653f200f220920489ca2b5937696c31910160405180910390a3505050565b611021848484610bc4565b61102d84848484611049565b6109bc5760405162461bcd60e51b815260040161045c90611845565b60006001600160a01b0384163b1561113f57604051630a85bd0160e11b81526001600160a01b0385169063150b7a029061108d903390899088908890600401611897565b6020604051808303816000875af19250505080156110c8575060408051601f3d908101601f191682019092526110c5918101906118d4565b60015b611125573d8080156110f6576040519150601f19603f3d011682016040523d82523d6000602084013e6110fb565b606091505b50805160000361111d5760405162461bcd60e51b815260040161045c90611845565b805181602001fd5b6001600160e01b031916630a85bd0160e11b149050610bbc565b506001949350505050565b6001600160e01b0319811681146107ab57600080fd5b60006020828403121561117257600080fd5b813561117d8161114a565b9392505050565b60005b8381101561119f578181015183820152602001611187565b50506000910152565b600081518084526111c0816020860160208601611184565b601f01601f19169290920160200192915050565b60208152600061117d60208301846111a8565b6000602082840312156111f957600080fd5b5035919050565b80356001600160a01b038116811461121757600080fd5b919050565b6000806040838503121561122f57600080fd5b61123883611200565b946020939093013593505050565b634e487b7160e01b600052604160045260246000fd5b600067ffffffffffffffff8084111561127757611277611246565b604051601f8501601f19908116603f0116810190828211818310171561129f5761129f611246565b816040528093508581528686860111156112b857600080fd5b858560208301376000602087830101525050509392505050565b600082601f8301126112e357600080fd5b61117d8383356020850161125c565b6000806040838503121561130557600080fd5b82359150602083013567ffffffffffffffff81111561132357600080fd5b61132f858286016112d2565b9150509250929050565b60008060006060848603121561134e57600080fd5b61135784611200565b925061136560208501611200565b9150604084013590509250925092565b6000806000806000610180868803121561138e57600080fd5b61139786611200565b945060208601359350604086013592506101608601878111156113b957600080fd5b6060870192503567ffffffffffffffff8111156113d557600080fd5b6113e1888289016112d2565b9150509295509295909350565b60006020828403121561140057600080fd5b813567ffffffffffffffff81111561141757600080fd5b610bbc848285016112d2565b60006020828403121561143557600080fd5b61117d82611200565b6000806040838503121561145157600080fd5b61145a83611200565b9150602083013567ffffffffffffffff81111561132357600080fd5b6000806040838503121561148957600080fd5b61149283611200565b9150602083013580151581146114a757600080fd5b809150509250929050565b600080600080608085870312156114c857600080fd5b6114d185611200565b93506114df60208601611200565b925060408501359150606085013567ffffffffffffffff81111561150257600080fd5b8501601f8101871361151357600080fd5b6115228782356020840161125c565b91505092959194509250565b6000806040838503121561154157600080fd5b61154a83611200565b915061155860208401611200565b90509250929050565b600181811c9082168061157557607f821691505b60208210810361159557634e487b7160e01b600052602260045260246000fd5b50919050565b601f8211156104fd57600081815260208120601f850160051c810160208610156115c25750805b601f850160051c820191505b818110156115e1578281556001016115ce565b505050505050565b815167ffffffffffffffff81111561160357611603611246565b611617816116118454611561565b8461159b565b602080601f83116001811461164c57600084156116345750858301515b600019600386901b1c1916600185901b1785556115e1565b600085815260208120601f198616915b8281101561167b5788860151825594840194600190910190840161165c565b50858210156116995787850151600019600388901b60f8161c191681555b5050505050600190811b01905550565b6020808252602d908201527f4552433732313a2063616c6c6572206973206e6f7420746f6b656e206f776e6560408201526c1c881bdc88185c1c1c9bdd9959609a1b606082015260800190565b60006101a0820190508782528660208301528560408301528460608301528360808301526101008360a0840137979650505050505050565b60006001820161174e57634e487b7160e01b600052601160045260246000fd5b5060010190565b66697066733a2f2f60c81b8152600060076000845461177381611561565b6001828116801561178b57600181146117a4576117d7565b60ff1984168887015282151583028801860194506117d7565b8860005260208060002060005b858110156117cc5781548b82018a01529084019082016117b1565b505050858389010194505b5092979650505050505050565b600082516117f6818460208701611184565b9190910192915050565b60208082526025908201527f4552433732313a207472616e736665722066726f6d20696e636f72726563742060408201526437bbb732b960d91b606082015260800190565b60208082526032908201527f4552433732313a207472616e7366657220746f206e6f6e20455243373231526560408201527131b2b4bb32b91034b6b83632b6b2b73a32b960711b606082015260800190565b6001600160a01b03858116825284166020820152604081018390526080606082018190526000906118ca908301846111a8565b9695505050505050565b6000602082840312156118e657600080fd5b815161117d8161114a56fea2646970667358221220391ea4340793d0e5d01b33c92cec6d04576cf775f2389741665c1d041450d71b64736f6c63430008110033",
  "devdoc": {
    "kind": "dev",
    "methods": {
      "approve(address,uint256)": {
        "details": "See {IERC721-approve}."
      },
      "balanceOf(address)": {
        "details": "See {IERC721-balanceOf}."
      },
      "constructor": {
        "params": {
          "_actionId": "The World ID action ID",
          "_appId": "The World ID app ID",
          "_worldId": "The WorldID instance that will verify the proofs"
        }
      },
      "devMint(string)": {
        "details": "Feel free to rename this method however you want! We've used `claim`, `verify` or `execute` in the past.",
        "params": {
          "cid": "The IPFS hash of the content to be minted"
        }
      },
      "getApproved(uint256)": {
        "details": "See {IERC721-getApproved}."
      },
      "isApprovedForAll(address,address)": {
        "details": "See {IERC721-isApprovedForAll}."
      },
      "mint(address,uint256,uint256,uint256[8],string)": {
        "details": "Feel free to rename this method however you want! We've used `claim`, `verify` or `execute` in the past.",
        "params": {
          "cid": "The IPFS hash of the content to be minted",
          "nullifierHash": "The nullifier hash for this proof, preventing double signaling (returned by the JS widget).",
          "proof": "The zero-knowledge proof that demonstrates the claimer is registered with World ID (returned by the JS widget).",
          "root": "The root of the Merkle tree (returned by the JS widget).",
          "signal": "An arbitrary input from the user, usually the user's wallet address (check README for further details)"
        }
      },
      "name()": {
        "details": "See {IERC721Metadata-name}."
      },
      "ownerOf(uint256)": {
        "details": "See {IERC721-ownerOf}."
      },
      "safeTransferFrom(address,address,uint256)": {
        "details": "See {IERC721-safeTransferFrom}."
      },
      "safeTransferFrom(address,address,uint256,bytes)": {
        "details": "See {IERC721-safeTransferFrom}."
      },
      "setApprovalForAll(address,bool)": {
        "details": "See {IERC721-setApprovalForAll}."
      },
      "setTokenURI(address,string)": {
        "params": {
          "cid": "cid of the token",
          "userAddress": "token id"
        }
      },
      "setTokenURI(uint256,string)": {
        "params": {
          "cid": "cid of the token",
          "tokenId": "token id"
        }
      },
      "supportsInterface(bytes4)": {
        "details": "See {IERC165-supportsInterface}."
      },
      "symbol()": {
        "details": "See {IERC721Metadata-symbol}."
      },
      "tokenURI(uint256)": {
        "details": "Returns the base URI for the token.",
        "params": {
          "tokenId": "The token to get the base URI of"
        },
        "returns": {
          "_0": "The IPFS hash of the token"
        }
      },
      "transferFrom(address,address,uint256)": {
        "details": "See {IERC721-transferFrom}."
      }
    },
    "stateVariables": {
      "externalNullifier": {
        "details": "The contract's external nullifier hash"
      },
      "groupId": {
        "details": "The World ID group ID (always 1)"
      },
      "nullifierHashes": {
        "details": "Whether a nullifier hash has been used already. Used to guarantee an action is only performed once by a single person"
      },
      "worldId": {
        "details": "The World ID instance that will be used for verifying proofs"
      }
    },
    "version": 1
  },
  "userdoc": {
    "errors": {
      "InvalidNullifier()": [
        {
          "notice": "Thrown when attempting to reuse a nullifier"
        }
      ]
    },
    "kind": "user",
    "methods": {
      "devMint(string)": {
        "notice": "Mint a NFT without WORLD ID Verification"
      },
      "setTokenURI(address,string)": {
        "notice": "Update token CID"
      },
      "setTokenURI(uint256,string)": {
        "notice": "Update token CID"
      }
    },
    "version": 1
  },
  "storageLayout": {
    "storage": [
      {
        "astId": 25,
        "contract": "contracts/Contract.sol:Contract",
        "label": "_name",
        "offset": 0,
        "slot": "0",
        "type": "t_string_storage"
      },
      {
        "astId": 27,
        "contract": "contracts/Contract.sol:Contract",
        "label": "_symbol",
        "offset": 0,
        "slot": "1",
        "type": "t_string_storage"
      },
      {
        "astId": 31,
        "contract": "contracts/Contract.sol:Contract",
        "label": "_owners",
        "offset": 0,
        "slot": "2",
        "type": "t_mapping(t_uint256,t_address)"
      },
      {
        "astId": 35,
        "contract": "contracts/Contract.sol:Contract",
        "label": "_balances",
        "offset": 0,
        "slot": "3",
        "type": "t_mapping(t_address,t_uint256)"
      },
      {
        "astId": 39,
        "contract": "contracts/Contract.sol:Contract",
        "label": "_tokenApprovals",
        "offset": 0,
        "slot": "4",
        "type": "t_mapping(t_uint256,t_address)"
      },
      {
        "astId": 45,
        "contract": "contracts/Contract.sol:Contract",
        "label": "_operatorApprovals",
        "offset": 0,
        "slot": "5",
        "type": "t_mapping(t_address,t_mapping(t_address,t_bool))"
      },
      {
        "astId": 2706,
        "contract": "contracts/Contract.sol:Contract",
        "label": "nullifierHashes",
        "offset": 0,
        "slot": "6",
        "type": "t_mapping(t_uint256,t_bool)"
      },
      {
        "astId": 2709,
        "contract": "contracts/Contract.sol:Contract",
        "label": "currentId",
        "offset": 0,
        "slot": "7",
        "type": "t_uint256"
      },
      {
        "astId": 2713,
        "contract": "contracts/Contract.sol:Contract",
        "label": "tokenIdToUri",
        "offset": 0,
        "slot": "8",
        "type": "t_mapping(t_uint256,t_string_storage)"
      },
      {
        "astId": 2717,
        "contract": "contracts/Contract.sol:Contract",
        "label": "addressToTokenId",
        "offset": 0,
        "slot": "9",
        "type": "t_mapping(t_address,t_uint256)"
      }
    ],
    "types": {
      "t_address": {
        "encoding": "inplace",
        "label": "address",
        "numberOfBytes": "20"
      },
      "t_bool": {
        "encoding": "inplace",
        "label": "bool",
        "numberOfBytes": "1"
      },
      "t_mapping(t_address,t_bool)": {
        "encoding": "mapping",
        "key": "t_address",
        "label": "mapping(address => bool)",
        "numberOfBytes": "32",
        "value": "t_bool"
      },
      "t_mapping(t_address,t_mapping(t_address,t_bool))": {
        "encoding": "mapping",
        "key": "t_address",
        "label": "mapping(address => mapping(address => bool))",
        "numberOfBytes": "32",
        "value": "t_mapping(t_address,t_bool)"
      },
      "t_mapping(t_address,t_uint256)": {
        "encoding": "mapping",
        "key": "t_address",
        "label": "mapping(address => uint256)",
        "numberOfBytes": "32",
        "value": "t_uint256"
      },
      "t_mapping(t_uint256,t_address)": {
        "encoding": "mapping",
        "key": "t_uint256",
        "label": "mapping(uint256 => address)",
        "numberOfBytes": "32",
        "value": "t_address"
      },
      "t_mapping(t_uint256,t_bool)": {
        "encoding": "mapping",
        "key": "t_uint256",
        "label": "mapping(uint256 => bool)",
        "numberOfBytes": "32",
        "value": "t_bool"
      },
      "t_mapping(t_uint256,t_string_storage)": {
        "encoding": "mapping",
        "key": "t_uint256",
        "label": "mapping(uint256 => string)",
        "numberOfBytes": "32",
        "value": "t_string_storage"
      },
      "t_string_storage": {
        "encoding": "bytes",
        "label": "string",
        "numberOfBytes": "32"
      },
      "t_uint256": {
        "encoding": "inplace",
        "label": "uint256",
        "numberOfBytes": "32"
      }
    }
  }
}